:020000040000FA
:100000000C9461000C947E000C947E000C947E0095
:100010000C947E000C947E000C947E000C947E0068
:100020000C947E000C947E000C947E000C947E0058
:100030000C947E000C947E000C947E000C947E0048
:100040000C94B2010C947E000C947E000C947E0003
:100050000C947E000C947E000C947E000C947E0028
:100060000C947E000C947E00000000002400270009
:100070002A0000000000250028002B0000000000DE
:1000800023002600290004040404040404040202DA
:100090000202020203030303030301020408102007
:1000A0004080010204081020010204081020000012
:1000B0000008000201000003040700000000000027
:1000C000000011241FBECFEFD8E0DEBFCDBF11E08E
:1000D000A0E0B1E0E4E0FAE002C005900D92A230A9
:1000E000B107D9F721E0A2E0B1E001C01D92A03331
:1000F000B207E1F70E94FC010C9400050C9400008B
:10010000833081F028F4813099F08230A9F008958D
:100110008730A9F08830C9F08430B1F48091800034
:100120008F7D03C0809180008F7780938000089539
:1001300084B58F7784BD089584B58F7DFBCF809182
:10014000B0008F778093B00008958091B0008F7DCC
:10015000F9CFCF93DF93282F30E0F901E255FF4F1D
:100160008491F901E656FF4FD491F901EA57FF4F08
:10017000C491CC23A1F081110E948000EC2FF0E00B
:10018000EE0FFF1FE458FF4FA591B491EC91ED23C2
:1001900081E090E009F480E0DF91CF91089580E064
:1001A00090E0FACF1F93CF93DF93282F30E0F9012F
:1001B000E255FF4F8491F901E656FF4FD491F901C2
:1001C000EA57FF4FC491CC23A9F0162F81110E944A
:1001D0008000EC2FF0E0EE0FFF1FEE58FF4FA591CF
:1001E000B4918FB7F894EC91111108C0D095DE232B
:1001F000DC938FBFDF91CF911F910895DE2BF8CF55
:10020000CF93DF9390E0FC01E656FF4F24918A578D
:100210009F4FFC0184918823C9F090E0880F991FBB
:10022000FC01E859FF4FA591B491FC01EE58FF4F36
:10023000C591D49161110DC09FB7F8948C91209510
:1002400082238C938881282328839FBFDF91CF91BD
:100250000895623051F49FB7F8943C91822F8095B5
:1002600083238C93E8812E2BEFCF8FB7F894EC91FA
:100270002E2B2C938FBFEACF8E50806480937C000E
:1002800080917A00806480937A0080917A0086FD64
:10029000FCCF809178009091790008953FB7F89451
:1002A0008091070190910801A0910901B0910A0184
:1002B00026B5A89B05C02F3F19F00196A11DB11DC1
:1002C0003FBFBA2FA92F982F8827BC01CD01620FFD
:1002D000711D811D911D42E0660F771F881F991FB8
:1002E0004A95D1F708958F929F92AF92BF92CF9285
:1002F000DF92EF92FF926B017C010E944E014B0155
:100300005C01C114D104E104F104B9F00E944E0172
:10031000681979098A099B09683E7340810591052E
:1003200080F321E0C21AD108E108F10888EE880EB6
:1003300083E0981EA11CB11CE4CFFF90EF90DF90EA
:10034000CF90BF90AF909F908F9008952FB7F89463
:100350006091030170910401809105019091060163
:100360002FBF08951F920F920FB60F9211242F9353
:100370003F938F939F93AF93BF938091030190918D
:100380000401A0910501B09106013091020123E022
:10039000230F2D3758F50196A11DB11D20930201A1
:1003A0008093030190930401A0930501B09306018B
:1003B0008091070190910801A0910901B0910A0173
:1003C0000196A11DB11D8093070190930801A09390
:1003D0000901B0930A01BF91AF919F918F913F9115
:1003E0002F910F900FBE0F901F90189526E8230FA6
:1003F0000296A11DB11DD2CFCF93DF9300D000D0C4
:10040000CDB7DEB7789484B5826084BD84B5816051
:1004100084BD85B5826085BD85B5816085BD8091CF
:100420006E00816080936E00109281008091810047
:10043000826080938100809181008160809381003F
:10044000809180008160809380008091B100846001
:100450008093B1008091B00081608093B000809162
:100460007A00846080937A0080917A008260809321
:100470007A0080917A00816080937A0080917A007E
:10048000806880937A001092C10062E082E00E944E
:10049000000161E083E00E94000161E086E00E94CB
:1004A000000160E086E00E94D20061E085E00E94E9
:1004B000000160E085E00E94D20060E084E00E94DC
:1004C0000001CC24CA9483E0D82EE12CF12C82E0E8
:1004D0000E94A9005C0190932F0180932E0184E07B
:1004E0000E94A90090932D0180932C01A114B104C6
:1004F000E9F580912A0190912B01019789F40E94DE
:10050000A601653171058105910550F00E94A60193
:10051000609326017093270180932801909329010D
:100520000E94A6018090260190902701A0902801AA
:10053000B0902901681979098A099B09693E7340BD
:100540008105910508F4B9C081E090E02091230174
:1005500030912401232B11F090E080E0909324014E
:100560008093230181E0809325019DC0AA94AB284C
:1005700009F0A3C080912A0190912B01892B09F0E9
:100580009CC00E94A6018090260190902701A09017
:100590002801B0902901681979098A099B096531F8
:1005A00071058105910508F488C0809125018111AC
:1005B00078C061E086E00E94D20061E085E00E94A0
:1005C000D2008FE00E943C019C01ADE9BFEF0E9488
:1005D000F104A70196010E948E04CA01B9016C5969
:1005E0007F4F8F4F9F4F69837A838B839C83609368
:1005F0001F01709320018093210190932201412CCF
:10060000512C320189819A81AB81BC8148165906EF
:100610006A067B06C8F58EE00E943C0123EE33E0BB
:10062000DC010E94F904A70196010E948E04490191
:100630005A0195E0890E911CA11CB11C80921B01EE
:1006400090921C01A0921D01B0921E0160E086E014
:100650000E94D20061E083E00E94D200C501B40193
:100660000E94730161E086E00E94D20060E083E0B6
:100670000E94D200C501B4010E947301AFEF4A1A73
:100680005A0A6A0A7A0ABECF60E086E00E94D20067
:1006900060E083E00E94D20060E085E00E94D2002A
:1006A0000CC0109225010E94A60160932601709350
:1006B0002701809328019093290180912C0190912A
:1006C0002D01892B09F081C084E00E94A90090933C
:1006D0002D0180932C01892B09F46CC061E086E028
:1006E0000E94D20061E085E00E94D2008FE00E946B
:1006F0003C019C01ADE9BFEF0E94F104A701960106
:100700000E948E04CA01B9016C597F4F8F4F9F4FD1
:1007100069837A838B839C8360931F01709320018C
:100720008093210190932201412C512C3201898127
:100730009A81AB81BC81481659066A067B0608F08F
:10074000BCCF8EE00E943C0123EE33E0DC010E942E
:10075000F904A70196010E948E0449015A0195E00F
:10076000890E911CA11CB11C80921B0190921C014E
:10077000A0921D01B0921E0160E085E00E94D200AF
:1007800061E083E00E94D200C501B4010E947301C0
:1007900061E085E00E94D20060E083E00E94D20028
:1007A000C501B4010E947301AFEF4A1A5A0A6A0ADE
:1007B0007A0ABDCF60E085E00E94D20060E083E06D
:1007C0000E94D20060E086E069CF80912301909181
:1007D0002401019709F07DC08EE00E943C012DEAC2
:1007E00037E0DC010E94F904A70196010E948E0403
:1007F00049015A0129013A01B3E24B0E511C611C17
:10080000711C409217015092180160921901709268
:100810001A018FE00E943C01A5019401275E3F4F21
:100820004F4F5F4FDC010E94B804A70196010E9460
:100830008E0449015A016AE0860E911CA11CB11C6C
:100840008092130190921401A0921501B0921601AA
:10085000D301C20188199909AA09BB0989839A831E
:10086000AB83BC8380930F0190931001A09311017F
:10087000B09312010E94A6012B013C0180910B0153
:1008800090910C01A0910D01B0910E0120910001F9
:10089000B301A201481B590B6A0B7B0BDB01CA0198
:1008A000222339F188159905AA05BB0590F061E06E
:1008B00086E00E94D20061E083E00E94D2001092A4
:1008C000000140920B0150920C0160920D01709258
:1008D0000E0180912E0190912F0190932B01809316
:1008E0002A0140E050E0452B09F4F1CD0E940000C0
:1008F000EECD29813A814B815C8182179307A40751
:10090000B50738F360E086E00E94D20060E083E043
:100910000E94D20081E080930001D3CF052E97FB87
:100920001EF400940E94A50457FD07D00E94C00445
:1009300007FC03D04EF40C94A504509540953095D7
:1009400021953F4F4F4F5F4F08959095809570953B
:1009500061957F4F8F4F9F4F08950E94E204A59F9E
:10096000900DB49F900DA49F800D911D11240895AA
:10097000B7FF0C94AD040E94AD04821B930B089545
:10098000A1E21A2EAA1BBB1BFD010DC0AA1FBB1F93
:10099000EE1FFF1FA217B307E407F50720F0A21B05
:1009A000B30BE40BF50B661F771F881F991F1A9472
:1009B00069F760957095809590959B01AC01BD019C
:1009C000CF010895A29FB001B39FC001A39F700DF6
:1009D000811D1124911DB29F700D811D1124911D47
:1009E00008950E94E204332312F48A1B9B0B0C949B
:1009F000FB040E94E204B7FF0895821B930B089545
:060A0000F894FFCF010095
:107E0000112484B714BE81FFF0D085E080938100F7
:107E100082E08093C00088E18093C10086E0809377
:107E2000C20080E18093C4008EE0C9D0259A86E02C
:107E300020E33CEF91E0309385002093840096BBD3
:107E4000B09BFECF1D9AA8958150A9F7CC24DD24C4
:107E500088248394B5E0AB2EA1E19A2EF3E0BF2EE7
:107E6000A2D0813461F49FD0082FAFD0023811F036
:107E7000013811F484E001C083E08DD089C08234E0
:107E800011F484E103C0853419F485E0A6D080C0E4
:107E9000853579F488D0E82EFF2485D0082F10E0AE
:107EA000102F00270E291F29000F111F8ED06801E7
:107EB0006FC0863521F484E090D080E0DECF843638
:107EC00009F040C070D06FD0082F6DD080E0C81688
:107ED00080E7D80618F4F601B7BEE895C0E0D1E017
:107EE00062D089930C17E1F7F0E0CF16F0E7DF06D8
:107EF00018F0F601B7BEE89568D007B600FCFDCFD4
:107F0000A601A0E0B1E02C9130E011968C91119780
:107F100090E0982F8827822B932B1296FA010C0160
:107F200087BEE89511244E5F5F4FF1E0A038BF0790
:107F300051F7F601A7BEE89507B600FCFDCF97BE46
:107F4000E89526C08437B1F42ED02DD0F82E2BD052
:107F50003CD0F601EF2C8F010F5F1F4F84911BD097
:107F6000EA94F801C1F70894C11CD11CFA94CF0C13
:107F7000D11C0EC0853739F428D08EE10CD085E9AC
:107F80000AD08FE07ACF813511F488E018D01DD067
:107F900080E101D065CF982F8091C00085FFFCCF94
:107FA0009093C60008958091C00087FFFCCF809118
:107FB000C00084FD01C0A8958091C6000895E0E648
:107FC000F0E098E1908380830895EDDF803219F02E
:107FD00088E0F5DFFFCF84E1DECF1F93182FE3DFCA
:107FE0001150E9F7F2DF1F91089580E0E8DFEE27F6
:047FF000FF270994CA
:027FFE00040479
:00000001FF
