:100000000C9462000C948A000C948A000C948A0070
:100010000C948A000C948A000C948A000C948A0038
:100020000C948A000C948A000C948A000C948A0028
:100030000C948A000C948A000C948A000C948A0018
:100040000C9471030C948A000C943F030C941903D4
:100050000C948A000C948A000C948A000C948A00F8
:100060000C948A000C948A000000000024002700F1
:100070002A0000000000250028002B0000000000DE
:1000800023002600290004040404040404040202DA
:100090000202020203030303030301020408102007
:1000A0004080010204081020010204081020000012
:1000B0000008000201000003040700000000000027
:1000C0000000BE0511241FBECFEFD8E0DEBFCDBFBC
:1000D00011E0A0E0B1E0E4EAFCE002C005900D927E
:1000E000A631B107D9F721E0A6E1B1E001C01D9228
:1000F000A93CB207E1F710E0C2E6D0E004C02197C6
:10010000FE010E944A06C136D107C9F70E94BB030F
:100110000C9450060C940000FC01538D448D252F47
:1001200030E0842F90E0821B930B541710F0CF9691
:10013000089501970895FC01918D828D981761F0C3
:10014000A28DAE0FBF2FB11D5D968C91928D9F5FDA
:100150009F73928F90E008958FEF9FEF0895FC01B9
:10016000918D828D981731F0828DE80FF11D858D6C
:1001700090E008958FEF9FEF0895FC01918D228DFF
:10018000892F90E0805C9F4F821B91098F73992784
:100190000895FC01A48DA80FB92FB11DA35ABF4F1C
:1001A0002C91848D90E001968F739927848FA68976
:1001B000B7892C93A089B1898C91837080648C93CA
:1001C000938D848D981306C00288F389E02D808179
:1001D0008F7D80830895EF92FF920F931F93CF93AB
:1001E000DF93EC0181E0888F9B8D8C8D98131AC072
:1001F000E889F989808185FF15C09FB7F894EE8959
:10020000FF896083E889F9898081837080648083B5
:100210009FBF81E090E0DF91CF911F910F91FF9000
:10022000EF900895F62E0B8D10E00F5F1F4F0F73A8
:100230001127E02E8C8D8E110CC00FB607FCFACF63
:10024000E889F989808185FFF5CFCE010E94C90038
:10025000F1CFEB8DEC0FFD2FF11DE35AFF4FF08234
:100260009FB7F8940B8FEA89FB8980818062CFCF9A
:10027000CF93DF93EC01888D8823B9F0AA89BB89DD
:10028000E889F9898C9185FD03C0808186FD0DC0C8
:100290000FB607FCF7CF8C9185FFF2CF808185FFE9
:1002A000EDCFCE010E94C900E9CFDF91CF91089533
:1002B0008CE291E00E94BD0021E0892B09F420E04E
:1002C000822F089580E090E0892B29F00E94580148
:1002D00081110C9400000895AF92BF92CF92DF92EB
:1002E000EF92FF920F931F93CF93DF936C017B01EB
:1002F0008B01040F151FEB015E01AE18BF08C0177C
:10030000D10759F06991D601ED91FC910190F081EE
:10031000E02DC6010995892B79F7C501DF91CF91B1
:100320001F910F91FF90EF90DF90CF90BF90AF9013
:100330000895833081F028F4813099F08230A9F05B
:1003400008958730A9F08830C9F08430B1F48091E5
:1003500080008F7D03C0809180008F778093800024
:10036000089584B58F7784BD089584B58F7DFBCFC4
:100370008091B0008F778093B00008958091B00095
:100380008F7DF9CFCF93DF93282F30E0F901E2552D
:10039000FF4F8491F901E656FF4FD491F901EA57D6
:1003A000FF4FC491CC23A1F081110E949901EC2F41
:1003B000F0E0EE0FFF1FE458FF4FA591B491EC91D0
:1003C000ED2381E090E009F480E0DF91CF91089582
:1003D00080E090E0FACF1F93CF93DF93282F30E097
:1003E000F901E255FF4F8491F901E656FF4FD49190
:1003F000F901EA57FF4FC491CC23A9F0162F8111C0
:100400000E949901EC2FF0E0EE0FFF1FEE58FF4F16
:10041000A591B4918FB7F894EC91111108C0D095C3
:10042000DE23DC938FBFDF91CF911F910895DE2BE8
:10043000F8CFCF93DF9390E0FC01E656FF4F249175
:100440008A579F4FFC0184918823C9F090E0880F60
:10045000991FFC01E859FF4FA591B491FC01EE589A
:10046000FF4FC591D49161110DC09FB7F8948C9145
:10047000209582238C938881282328839FBFDF9136
:10048000CF910895623051F49FB7F8943C91822F38
:10049000809583238C93E8812E2BEFCF8FB7F89430
:1004A000EC912E2B2C938FBFEACF8E5080648093DB
:1004B0007C0080917A00806480937A0080917A0039
:1004C00086FDFCCF809178009091790008953FB728
:1004D000F89480911B0190911C01A0911D01B09195
:1004E0001E0126B5A89B05C02F3F19F00196A11D3E
:1004F000B11D3FBFBA2FA92F982F8827BC01CD016E
:10050000620F711D811D911D42E0660F771F881FCC
:10051000991F4A95D1F708958F929F92AF92BF92FB
:10052000CF92DF92EF92FF926B017C010E946702F3
:100530004B015C01C114D104E104F104B9F00E9443
:100540006702681979098A099B09683E7340810529
:10055000910580F321E0C21AD108E108F10888EE84
:10056000880E83E0981EA11CB11CE4CFFF90EF9091
:10057000DF90CF90BF90AF909F908F9008952FB74E
:10058000F894609117017091180180911901909170
:100590001A012FBF08958F929F92AF92BF920F932F
:1005A0001F93CF93DF93CDB7DEB7A1970FB6F89423
:1005B000DEBF0FBECDBF19A2423008F44AE08E0163
:1005C0000F5D1F4F842E912CB12CA12CA5019401FD
:1005D0000E940A06E62FB901CA01EA3044F5E05D3F
:1005E000D801EE938D01232B242B252B79F790E056
:1005F00080E0109769F0FD0101900020E9F7319744
:10060000AF014A1B5B0BBD018CE291E00E946C01C3
:10061000A1960FB6F894DEBF0FBECDBFDF91CF918C
:100620001F910F91BF90AF909F908F900895E95CBC
:10063000D7CF1F920F920FB60F9211242F933F9393
:100640004F935F936F937F938F939F93AF93BF93DA
:10065000EF93FF938CE291E00E94C900FF91EF912C
:10066000BF91AF919F918F917F916F915F914F91CA
:100670003F912F910F900FBE0F901F9018951F92D2
:100680000F920FB60F9211242F938F939F93EF9396
:10069000FF93E0913C01F0913D018081E0914201A6
:1006A000F091430182FD1BC09081809145018F5FD5
:1006B0008F7320914601821741F0E0914501F0E0EF
:1006C000E45DFE4F958F80934501FF91EF919F91DF
:1006D0008F912F910F900FBE0F901F9018958081D2
:1006E000F4CF1F920F920FB60F9211242F933F93C6
:1006F0008F939F93AF93BF938091170190911801AF
:10070000A0911901B0911A013091160123E0230F35
:100710002D3758F50196A11DB11D20931601809328
:10072000170190931801A0931901B0931A018091B9
:100730001B0190911C01A0911D01B0911E01019619
:10074000A11DB11D80931B0190931C01A0931D015D
:10075000B0931E01BF91AF919F918F913F912F91C7
:100760000F900FBE0F901F90189526E8230F02964A
:10077000A11DB11DD2CF789484B5826084BD84B5AB
:10078000816084BD85B5826085BD85B5816085BD8C
:1007900080916E00816080936E0010928100809144
:1007A00081008260809381008091810081608093CC
:1007B0008100809180008160809380008091B100F1
:1007C00084608093B1008091B00081608093B0001C
:1007D00080917A00846080937A0080917A008260B0
:1007E00080937A0080917A00816080937A00809172
:1007F0007A00806880937A001092C10062E082E003
:100800000E94190261E083E00E94190261E086E023
:100810000E94190260E086E00E94EB0161E085E041
:100820000E94190260E085E00E94EB0160E084E034
:100830000E941902CC24CA9483E0D82EE12CF12C1A
:1008400090E0292E90E0392E82E00E94C201EC0156
:1008500090932B0180932A0184E00E94C20190931F
:100860002901809328012097D1F48091260190914D
:100870002701019709F078C10E94BF026531710517
:100880008105910508F470C10E94BF0260932201A6
:100890007093230180932401909325018BC02197AD
:1008A00009F067C1C0912601D0912701209709F076
:1008B00060C10E94BF02009122011091230120918A
:1008C000240130912501601B710B820B930B653164
:1008D00071058105910508F44CC1809121018111B8
:1008E000F2C061E086E00E94EB0161E085E00E94D9
:1008F000EB018FE00E9455029C01ADE9BFEF0E9421
:100900003B06A70196010E94EB0589019A010C594B
:100910001F4F2F4F3F4F2801012E000C660877080C
:10092000C017D107DCF54AE0C301B2010E94CB0237
:1009300042E050E062E171E08CE291E00E946C01E3
:100940008EE00E9455025C0160E086E00E94EB01AF
:1009500061E083E00E94EB0123EE33E0D5010E94C9
:100960004306A70196010E94EB0549015A0185E063
:10097000880E911CA11CB11CC501B4010E948C02FF
:1009800061E086E00E94EB0160E083E00E94EB0101
:10099000C501B4010E948C022196C2CF60E086E0BE
:1009A0000E94EB0160E083E00E94EB0160E085E0E3
:1009B0000E94EB01C0912A01D0912B01209771F583
:1009C0000E94BF0200912201109123012091240175
:1009D00030912501601B710B820B930B693E7340B4
:1009E00081059105D8F081E090E020911F013091C0
:1009F0002001232B11F090E080E090932001809360
:100A00001F0181E0809321010E94BF0260932201B7
:100A10007093230180932401909325010091280174
:100A2000109129010115110509F050C061E086E01F
:100A30000E94EB0161E085E00E94EB018FE00E94E3
:100A400055029C01ADE9BFEF0E943B06A70196014C
:100A50000E94EB0549015A0184E6880E911CA11CF5
:100A6000B11C08151905F4F58EE00E9455025C01D1
:100A700060E085E00E94EB0161E083E00E94EB0111
:100A800023EE33E0D5010E944306A70196010E94A0
:100A9000EB0529013A0185E0480E511C611C711CCF
:100AA000C301B2010E948C0261E085E00E94EB016B
:100AB00060E083E00E94EB01C301B2010E948C025E
:100AC0000F5F1F4FCECF10922101DECE60E085E098
:100AD0000E94EB0160E083E00E94EB0160E086E0B1
:100AE0000E94EB0180911F0190912001019761F517
:100AF0008EE00E9455028C0161E086E00E94EB01CD
:100B000061E083E00E94EB0123EE33E0D8010E9414
:100B10004306A70196010E94EB0549015A0185E0B1
:100B2000880E911CA11CB11CC501B4010E948C024D
:100B300060E086E00E94EB0160E083E00E94EB0150
:100B4000C501B4010E948C02D0932701C0932601F5
:100B50002114310409F478CE0E945801882309F445
:100B600073CE0E94000070CEC0912A01D0912B015B
:100B700027CFC0912A01D0912B0150CFECE2F1E0B8
:100B80001382128288EE93E0A0E0B0E08483958324
:100B9000A683B78384E091E09183808385EC90E025
:100BA0009587848784EC90E09787868780EC90E037
:100BB000918B808B81EC90E0938B828B82EC90E028
:100BC000958B848B86EC90E0978B868B118E128EA2
:100BD000138E148E0895052E97FB1EF400940E9428
:100BE000020657FD07D00E940A0607FC03D04EF408
:100BF0000C94020650954095309521953F4F4F4FEC
:100C00005F4F089590958095709561957F4F8F4FB8
:100C10009F4F0895A1E21A2EAA1BBB1BFD010DC018
:100C2000AA1FBB1FEE1FFF1FA217B307E407F5079C
:100C300020F0A21BB30BE40BF50B661F771F881F78
:100C4000991F1A9469F760957095809590959B010E
:100C5000AC01BD01CF010895A29FB001B39FC001B7
:100C6000A39F700D811D1124911DB29F700D811DD8
:100C70001124911D08950E942C06332312F48A1B1F
:100C80009B0B0C9445060E942C06B7FF0895821B0F
:100C9000930B0895EE0FFF1F0590F491E02D09943A
:040CA000F894FFCFF6
:100CA40000000000EB006C018C003801BD009B00CB
:060CB400AF000D0A000074
:00000001FF
