:100000000C9461000C947E000C947E000C947E0095
:100010000C947E000C947E000C947E000C947E0068
:100020000C947E000C947E000C947E000C947E0058
:100030000C947E000C947E000C947E000C947E0048
:100040000C94A6010C947E000C947E000C947E000F
:100050000C947E000C947E000C947E000C947E0028
:100060000C947E000C947E00000000002400270009
:100070002A0000000000250028002B0000000000DE
:1000800023002600290004040404040404040202DA
:100090000202020203030303030301020408102007
:1000A0004080010204081020010204081020000012
:1000B0000008000201000003040700000000000027
:1000C000000011241FBECFEFD8E0DEBFCDBF11E08E
:1000D000A0E0B1E0E8E9F8E002C005900D92A030A0
:1000E000B107D9F721E0A0E0B1E001C01D92AC3129
:1000F000B207E1F70E94F0010C944A040C9400004E
:10010000833081F028F4813099F08230A9F008958D
:100110008730A9F08830C9F08430B1F48091800034
:100120008F7D03C0809180008F7780938000089539
:1001300084B58F7784BD089584B58F7DFBCF809182
:10014000B0008F778093B00008958091B0008F7DCC
:10015000F9CFCF93DF93282F30E0F901E255FF4F1D
:100160008491F901E656FF4FD491F901EA57FF4F08
:10017000C491CC23A1F081110E948000EC2FF0E00B
:10018000EE0FFF1FE458FF4FA591B491EC91ED23C2
:1001900081E090E009F480E0DF91CF91089580E064
:1001A00090E0FACF1F93CF93DF93282F30E0F9012F
:1001B000E255FF4F8491F901E656FF4FD491F901C2
:1001C000EA57FF4FC491CC23A9F0162F81110E944A
:1001D0008000EC2FF0E0EE0FFF1FEE58FF4FA591CF
:1001E000B4918FB7F894EC91111108C0D095DE232B
:1001F000DC938FBFDF91CF911F910895DE2BF8CF55
:10020000CF93DF9390E0FC01E656FF4F24918A578D
:100210009F4FFC0184918823C9F090E0880F991FBB
:10022000FC01E859FF4FA591B491FC01EE58FF4F36
:10023000C591D49161110DC09FB7F8948C91209510
:1002400082238C938881282328839FBFDF91CF91BD
:100250000895623051F49FB7F8943C91822F8095B5
:1002600083238C93E8812E2BEFCF8FB7F894EC91FA
:100270002E2B2C938FBFEACF8E50806480937C000E
:1002800080917A00806480937A0080917A0086FD64
:10029000FCCF809178009091790008953FB7F89451
:1002A0008091010190910201A0910301B09104019C
:1002B00026B5A89B05C02F3F19F00196A11DB11DC1
:1002C0003FBFBA2FA92F982F8827BC01CD01620FFD
:1002D000711D811D911D42E0660F771F881F991FB8
:1002E0004A95D1F708958F929F92AF92BF92CF9285
:1002F000DF92EF92FF926B017C010E944E014B0155
:100300005C01C114D104E104F104B9F00E944E0172
:10031000681979098A099B09683E7340810591052E
:1003200080F321E0C21AD108E108F10888EE880EB6
:1003300083E0981EA11CB11CE4CFFF90EF90DF90EA
:10034000CF90BF90AF909F908F9008951F920F9283
:100350000FB60F9211242F933F938F939F93AF93D8
:10036000BF938091050190910601A0910701B09182
:1003700008013091000123E0230F2D3758F5019635
:10038000A11DB11D209300018093050190930601EA
:10039000A0930701B093080180910101909102019F
:1003A000A0910301B09104010196A11DB11D80939C
:1003B000010190930201A0930301B0930401BF9146
:1003C000AF919F918F913F912F910F900FBE0F9002
:1003D0001F90189526E8230F0296A11DB11DD2CFBC
:1003E000CF93DF9300D000D0CDB7DEB7789484B53B
:1003F000826084BD84B5816084BD85B5826085BD21
:1004000085B5816085BD80916E00816080936E00AE
:1004100010928100809181008260809381008091A0
:100420008100816080938100809180008160809351
:1004300080008091B10084608093B1008091B00011
:1004400081608093B00080917A00846080937A000C
:1004500080917A00826080937A0080917A00816036
:1004600080937A0080917A00806880937A0010925D
:10047000C10062E082E00E94000161E083E00E942E
:10048000000161E086E00E94000160E086E00E94D9
:10049000D20061E085E00E94000160E085E00E94FA
:1004A000D20060E084E00E94000188248A9483E006
:1004B000982EA12CB12C84E00E94A90090931B01DE
:1004C00080931A0180911A0190911B01892B09F4E4
:1004D0006EC182E00E94A9007C0190931901809373
:1004E000180184E00E94A90090931B0180931A01D7
:1004F000EF2809F0A1C08091160190911701019792
:1005000009F0DAC02FB7F8948091050190910601A7
:10051000A0910701B09108012FBF4597A105B10532
:1005200008F48AC02FB7F8948091050190910601D4
:10053000A0910701B09108012FBF80931201909301
:100540001301A0931401B093150161E086E00E94AD
:10055000D20061E085E00E94D2008FE00E943C0161
:100560009C01ADE9BFEF0E943B04A50194010E94EC
:10057000EB03DA01C9018C599F4FAF4FBF4F8983FD
:100580009A83AB83BC8380930D0190930E01A0935B
:100590000F01B0931001412C512C320189819A81B5
:1005A000AB81BC81481659066A067B06C8F58EE009
:1005B0000E943C0123EE33E0DC010E944304A501CC
:1005C00094010E94EB0369017A0195E0C90ED11CE8
:1005D000E11CF11CC0920901D0920A01E0920B01CA
:1005E000F0920C0160E086E00E94D20061E083E0BE
:1005F0000E94D200C701B6010E94730161E086E04B
:100600000E94D20060E083E00E94D200C701B601E0
:100610000E947301AFEF4A1A5A0A6A0A7A0ABECFD9
:1006200060E086E00E94D20060E083E00E94D20099
:1006300060E085E00E94D20080911801909119013C
:100640000197D1F58091160190911701892BA1F5A1
:100650002FB7F8948091050190910601A0910701B0
:10066000B09108012FBF4091120150911301609188
:10067000140170911501841B950BA60BB70B4597C0
:10068000A105B105C8F0809111018823A9F010924D
:1006900011012FB7F8948091050190910601A09166
:1006A0000701B09108012FBF8093120190931301AD
:1006B000A0931401B0931501809118019091190134
:1006C000909317018093160180911A0190911B015C
:1006D000892B09F0F7CE61E086E00E94D20061E04C
:1006E00085E00E94D2008FE00E943C019C01ADE9B0
:1006F000BFEF0E943B04A50194010E94EB03DA01C5
:10070000C9018C599F4FAF4FBF4F89839A83AB83E9
:10071000BC8380930D0190930E01A0930F01B093C1
:100720001001412C512C320189819A81AB81BC810D
:10073000481659066A067B0608F0C4CE8EE00E9471
:100740003C0123EE33E0DC010E944304A501940147
:100750000E94EB0369017A0195E0C90ED11CE11CEE
:10076000F11CC0920901D0920A01E0920B01F092B3
:100770000C0160E085E00E94D20061E083E00E940D
:10078000D200C701B6010E94730161E085E00E94BA
:10079000D20060E083E00E94D200C701B6010E944F
:1007A0007301AFEF4A1A5A0A6A0A7A0ABDCF60E0AB
:1007B00085E00E94D20060E083E00E94D20060E009
:1007C00086E00E94D20080E090E0892B09F473CE8D
:1007D0000E94000070CE052E97FB1EF400940E942C
:1007E000020457FD07D00E940A0407FC03D04EF410
:1007F0000C94020450954095309521953F4F4F4FF2
:100800005F4F089590958095709561957F4F8F4FBC
:100810009F4F0895A1E21A2EAA1BBB1BFD010DC01C
:10082000AA1FBB1FEE1FFF1FA217B307E407F507A0
:1008300020F0A21BB30BE40BF50B661F771F881F7C
:10084000991F1A9469F760957095809590959B0112
:10085000AC01BD01CF010895A29FB001B39FC001BB
:10086000A39F700D811D1124911DB29F700D811DDC
:100870001124911D08950E942C04332312F48A1B25
:100880009B0B0C9445040E942C04B7FF0895821B17
:08089000930B0895F894FFCFCB
:00000001FF
